:020000040001F9
:1080000020320020158101002F8101003181010003
:108010000000000000000000000000000000000060
:10802000000000000000000000000000338101009B
:1080300000000000000000003581010037810100D0
:108040003981010039810100718501008D830100B2
:108050003981010000000000218201003981010006
:108060003981010039810100398101003981010024
:108070003981010039810100398101003981010014
:10808000398101006D8301003981010039810100CE
:10809000C183010039810100C983010039810100D8
:1080A000398101003981010000000000000000005A
:1080B00000000000000000000000000000000000C0
:1080C0000348854600F07CF800480047519F0100B6
:1080D00020320020401E00BF00BF00BF00BF00BF15
:1080E00000BF00BF00BF00BF00BF00BF00BFF1D195
:1080F00070470000401E00BF00BF00BF00BF00BFB0
:1081000000BF00BF00BF00BF00BF00BF00BFF1D174
:10811000704700000321094802680A4302600848CA
:1081200002680A4302600748804707480047FEE7A5
:10813000FEE7FEE7FEE7FEE7FEE70000240500405D
:1081400054050040ED830100C180010030B50B46AD
:10815000014600202022012409E00D46D5409D4221
:1081600005D31D469540491B2546954040191546A7
:10817000521E002DF1DC30BD03460B439B0703D09C
:1081800009E008C9121F08C0042AFAD203E00B78DC
:108190000370401C491C521EF9D27047D2B201E054
:1081A0000270401C491EFBD270470022F6E710B552
:1081B00013460A4604461946FFF7F0FF204610BD55
:1081C000064C0125064E05E0E36807CC2B430C3C2A
:1081D00098471034B442F7D3FFF776FF88B5010013
:1081E000A8B5010030B58C180278401C13071B0F8E
:1081F00001D10378401C120906D10278401C03E02B
:1082000005780D70401C491C5B1EF9D101E00B7014
:10821000491C521EFBD1A142E6D3002030BD000014
:10822000F8B50024FF25013501262746009428468D
:1082300002F0AEFB002808D034484068304204D039
:10824000334800212818344301602D1D76007F1C1F
:10825000ADB2042FEBD3FF207D3002F099FB002854
:1082600007D02C4800210160400704432A480069D8
:1082700000902A4F200712D00126002526420AD05E
:108280002748AA00111808690969C004C00E8903AB
:10829000BA58890F904776006D1C042DEED3002C40
:1082A00030DA00241D4E0021301940304156491C5F
:1082B00025D00778BD06AD0E284601F013FB8000DF
:1082C0003658002E1BD0BF090121A940154AA8002D
:1082D00080180068009A8003800F114202D00228A3
:1082E00002D00CE003280AD1032F05D102280AD0BE
:1082F0000221284602F034FB39462846B047641C68
:10830000042CCFD3F8BD0321F3E700000063004045
:10831000006000407C6100400005005004280020FF
:1083200000650040000700508307FF22DB0E9A40E3
:108330008907090E994000280BDA0007000F08385A
:10834000830808489B001818C36993430B43C36113
:108350007047830804489B001B1818689043084323
:108360001860704700ED00E000E400E010B5064939
:108370000020086048608860C86003494039086090
:10838000486002F055FE10BD4011014070B5FF215C
:1083900009480931094C00254550214602F08AFE62
:1083A000002808D1A079FF2801D002F0E9FA657110
:1083B00021680020884770BD003000403C29002023
:1083C00010B502F0CBFD10BD10B50748406800287D
:1083D00007D08047002803D00022114600F0BAFBE6
:1083E00010BD01F051FC10BDAC20002010B501F013
:1083F00099FC002805D00E490C484860C8130D4967
:1084000088610D48018CC9B201290ED1818C090700
:108410000BD1018D0906090F042906D1808D0006B4
:10842000000F02D105490120886010BDDFFF07C0A1
:1084300000050040006C0040C00F00F00006004046
:1084400010B501F0ABFB0028FBD1401CC0B21928CD
:10845000FBD30C490878401C8007800F0870032864
:1084600009D0084805231A4607490A3002F072FC71
:108470000548007810BD052302481A460249401DF0
:10848000F4E70000C82000205429002038B500255A
:10849000009501F083FB0028FBD1074C2570401CA0
:1084A000C0B21928FBD302231A460349684602F0DA
:1084B00051FC207838BD00005429002070B50D46CD
:1084C000064601F06BFB0028FBD10024641CE4B2DB
:1084D000192CFBD32B461A460349304602F03AFCCE
:1084E0000148007870BD00005429002000B591B00B
:1084F00040216846FFF759FE00F031F804231A4680
:108500006946084802F026FC40231A460649684698
:1085100002F020FC044905A000F0ACF800F017F8C8
:1085200011B000BDC92000205429002054434D2023
:1085300064657620696E666F3A2025730D0A000027
:1085400010B501F003FB01F03BFB012010BD10B59D
:10855000142001F04DFE012001F027FB10BD10B5E5
:10856000002001F022FB282001F042FE10BD000097
:10857000F0B53C4D012185B04902284602F017FABA
:1085800001270026384C002823D0FF21253128461A
:1085900002F008FA00281CD0FF2025302E50812040
:1085A000324980008860607D002800D16F60022120
:1085B000684601702E49086808600390E17C6846AF
:1085C0000172E0680190E67406CC6846083C90476A
:1085D0001DE00421284602F0EAF9002817D0FF2107
:1085E0000931284602F0DEF9002810D002F0A4FA82
:1085F000E07C217D88420AD1607D002800D16F6037
:1086000081201A4980008860207D02F0FBFAFF215A
:108610001D31284602F0C6F900280DD0A07C218A21
:10862000884202D902F06EFD06E0FF211D316E5036
:10863000002801D002F0BCFDFF214531284602F0A0
:10864000B1F900280CD0FF2045302E50607D002865
:1086500000D02F60E07C002802D0207D02F0D2FA0A
:1086600005B0F0BD002000404C2800200023004051
:10867000802400400FB410B503A9044B044A0298AB
:1086800000F024F810BC08BC04B01847639C01003B
:10869000A820002030B47446641E2578641CAB42C8
:1086A00000D21D46635D5B00E31830BC184702E052
:1086B00008C8121F08C1002AFAD17047704700206D
:1086C00001E001C1121F002AFBD17047FFB58DB038
:1086D0000F460546002606E025280AD0109A0F9975
:1086E00090476D1C761C28780028F5D1304611B0D3
:1086F000F0BD00240121674A009400E004436D1C92
:108700002B780846203B98401042F7D128782E2835
:1087100015D10420044368786D1C2A280AD101CFA2
:108720006D1C00900BE000990A225143303940182B
:108730006D1C00902878014630390929F3D9287832
:10874000692843D006DC0028D0D063280BD06428E9
:1087500004D13BE073280FD075284CD0109A0F99A4
:108760009047761C94E03878694608720020487279
:1087700002A80190012003E0386801900020C04366
:108780003F1D61070CD5002400E0641C00998C4259
:108790000FDA8442F9DB0199095D0029F5D108E07F
:1087A000002400E0641C8442FCDB0199095D00297F
:1087B000F8D1361907E0019801990078491C019118
:1087C000109A0F999047641EF5D261E00A2001903B
:1087D00001CF002802DA40422D2102E0210504D514
:1087E0002B216A461172012103E0E10701D020210B
:1087F000F7E70C9104E00A20019001CF00210C91D1
:108800000BA90B9108E00199FFF7A0FC0A460B9910
:108810003032491E0B910A700028F4D10B9803A93D
:10882000081A20300190600701D5009801E001206E
:1088300000900199884203DD01460198081A00E082
:1088400000200024009006E002A8109A005D0F9915
:108850009047641C761C0C988442F5DB04E0109A67
:1088600030200F999047761C0099481E00900029EF
:10887000F5DC08E00B980B990078491C0B91109AD5
:108880000F999047761C0199481E01900029F1DC50
:108890006D1C28E709280100F7B584B0002516886B
:1088A00007461580406B1446002813D003780598BE
:1088B000032E51D30221017021881122491C89B253
:1088C000218042542188491C89B221804354208848
:1088D000401C2080386B00281DD005462088059953
:1088E00002461232B24237D811220A54208810228E
:1088F000401C80B220800A542088401C20800F2019
:108900002A5C2388401ECA54228840B2521C22800E
:108910000028F5DA0025384620300290807B0028B8
:1089200006D033462246059901F020FA050014D1FD
:108930000298407B002806D032462146059800F078
:10894000EFFC050009D1B878002823D005988646A9
:108950002088001DB04202D90C2007B0F0BD684647
:1089600079DF0028F9D121880320724650542088ED
:108970001921401C80B22080115420887146401C6F
:1089800080B2208041186846008802F0A7FC218848
:1089900040182080F878002817D0218803230A4641
:1089A000FB56C91C0598B142D6D8022181542188B2
:1089B0000122491C89B2218042542188491C89B274
:1089C000218043542088401C20807868002817D0DC
:1089D00021880023C3560A46C91C0598B142BBD85A
:1089E0000221815421880A22491C89B221804254E3
:1089F0002188491C89B2218043542088401C208052
:108A0000388900280AD000943846019606220221AF
:108A10000830059B02F0D7FC05009ED1388A00285B
:108A20000AD0009438460196072203211030059B96
:108A300002F0C9FC050090D1388B00280AD00094C0
:108A400038460196152214211830059B02F0BBFC14
:108A5000050082D1386A002806D03346224605999F
:108A600000F0BEFF0500D8D1786A002806D0334652
:108A70002246059901F038FB0500CED10298007B13
:108A8000002807D0334622463846059902F0D8F828
:108A90000500C2D13878002807D033462246384630
:108AA000059901F055FB0500B7D1284655E710B5EB
:108AB00001220221002000F097FD002801D00728A4
:108AC00012D107220221012000F08EFD002801D0E2
:108AD000072809D100210A22084600F085FD002858
:108AE00001D0072800D1002010BD000030B5A7B08C
:108AF000382101A8FFF759FB0221684601710024C3
:108B000084710521C17138210FA8FFF74EFB0125A3
:108B100010A885810D48149024211DA8FFF745FB5E
:108B200020A8057040202190B4202290084B1DAA57
:108B30000FA9009401A800F0BDF9002803D000227D
:108B4000114600F007F827B030BD000004200020D7
:108B5000CBA90100BFF34F8F04490348C860BFF39E
:108B60004F8F00BFFDE700000400FA0500ED00E0B4
:108B700010B58268C368934203D001F05FF800200B
:108B800010BD052010BD002906D0002A02D0531EBA
:108B9000134203D0092070470E2070470160838084
:108BA00000218160C1600846704710B58268C368C3
:108BB0009A1A83889A4203D801F04AF8002010BD1F
:108BC000042010BD094B9B68002B07D0002A07D05A
:108BD000002805D00068037C002B03D008207047D4
:108BE00007207047417442610020704788200020B0
:108BF000FFB59007002581B014460E46002832D1FB
:108C00001B4F002C31D001F075FF049878610320D0
:108C1000387033461821224600204B43BC6018347C
:108C2000C10089180D704D708E704C601C19401C6D
:108C30000328F5DBFD607D7001240E48BD7024051E
:108C4000046003211420FFF76FFB0B4804600B4CFA
:108C50000198A06003211120FFF766FB606838616E
:108C6000002005B0F0BD0720FBE7BD60FBE700007A
:108C70008820002080E200E000E100E000150140D3
:108C8000FEB50D461B4917468968044600292AD0BF
:108C9000002C28D0052D01D20720FEBD60690028D8
:108CA00021D0607C012820D0002602F04FFBC000BC
:108CB0001049019089684018694602F071FB00284C
:108CC00015D0012101700C49446049680830E2C0A8
:108CD000084901988968411868460078487002F090
:108CE0007FF90020FEBD0820FEBD2E46DDE70420F2
:108CF000FEBD00008820002000150140F8B5134D8E
:108D00000446A96800291CD0002C1AD060690028EC
:108D100017D00026267402F019FBC700A868694620
:108D2000381802F03DFB00280DD00221017044608C
:108D3000A868391868460078487002F051F9304642
:108D4000F8BD0820F8BD0420F8BD000088200020F0
:108D500010B5044609488168C2688088511A81426A
:108D600007D10121064801F0FBFC002801D00520B5
:108D700010BD21460148FFF7FBFE10BDE42700208F
:108D80005E20002070B50446224888B01E460D00C3
:108D900042601CD0A888296882B21F48FFF7F3FE02
:108DA000002815D1A889A96882B21B481030FFF7A6
:108DB000EAFE00280CD1202218496846FFF7DCF9AA
:108DC000A06806902079002804D0012103E0072044
:108DD00008B070BD002168460175067760790028EB
:108DE00000D00E2069464875E0780290A078039084
:108DF00020780190607800900949684601F058FC9D
:108E00000028E5D101F006FD02480121801C01F097
:108E1000A7FCDDE75C200020E427002010B501005E
:108E200039B2010010B50446064801214470401CC7
:108E300001F0FCFC112803D121460348FFF7B5FEE1
:108E400010BD00005C200020F4270020F0B50C4687
:108E500093B01F216A4611800726002791800028C1
:108E600009D0C17849070DD502A9FFF715FD0028E3
:108E700009D102AD01E000251780002C0ED0E0786A
:108E8000002802D0304613B0F0BD01AA0AA920463E
:108E9000FFF702FD0028F6D10AAA02E06846002288
:108EA000878068468088C3B268460088C1B2284679
:108EB00072DFE8E770B50D4604991646040042D00B
:108EC000002E40D0424800224271C360016124223A
:108ED00031464048FFF750F900F0B8F83D493431C9
:108EE0000846103801602031816038215C38FFF776
:108EF0005CF93848217838380170A1788170E178C0
:108F0000C170617841706269216942610161E26802
:108F1000A168C26081600146E369A269CB618A6190
:108F2000616A002919D00146AC310246B83241626B
:108F30008A60636A1B880B80616A436A89889980AA
:108F40000021436A06E00E2070BD666AB668765C52
:108F50005654491C9E888E42F7D8A16A00291CD01D
:108F60001C4AAC3211460C398A608162A36A9B8824
:108F70008B80A16A836A098819800021836A04E0D2
:108F8000A66AB668765C5654491C9E888E42F7D80D
:108F90002C210A5D0F4918390A73216A002909D06A
:108FA0000B4914310162226A52884A80216A026A9E
:108FB000098811806168002904D00549891D416034
:108FC00061684160034829463838FFF73FFF70BDAC
:108FD00028200020DC26002010B502881A4C102A18
:108FE00017D00021112A17D0192A11D18079002811
:108FF0000ED1607901281BD002281FD003281FD072
:10900000042805D12171E2680846002A00D0904763
:1090100010BD8088208110BD6170808821898842C0
:10902000F9D1012005E021690029F4D0884710BD5D
:10903000022000F013F80028F5D110BD0320F8E756
:10904000032020710420F4E72820002010B5072118
:109050000148FFF7AAF810BD40200020F0B5754C7C
:1090600087B06071002606A8069601F02FFD012743
:10907000082806D000286FD10698002802D0277053
:10908000D4E00696FFF7E2FF6B4D6878002802D027
:109090006079012805D0A87800280AD060790228D4
:1090A00007D1E168002903D0E7700820884700E075
:1090B000E6706079012808D16878002809D05D48F9
:1090C000193001F0DFFC002803D06079022802D0BB
:1090D0000CE002206071A878002805D055481930AE
:1090E00001F0D0FC002801D103206071287B00280A
:1090F00004D16079032801D104206071287E002802
:1091000004D16079042801D166712671E1680029D3
:109110000AD06079032801D0042805D128780028D6
:1091200002D06078002818D0A67018216846FFF792
:109130003CF868460670019606720396607901282D
:109140000FD0022816D03C4E243637465C3F032809
:109150001CD004285ED13BE069E0A7700720884757
:10916000E3E734481830019068460770468206826B
:10917000277152E02F4818300190684607702989FE
:109180004182A98801820220207146E0A88A6946AE
:109190004882288A08822848243002F083F900286F
:1091A00005D02878002802D06078002801D003205C
:1091B0002FE002206946087204200396F8701E48CA
:1091C00000213838FFF742FE002830D1052020E08A
:1091D000A88B69460882288C48821748243002F000
:1091E00061F9002805D02878002802D0607800288E
:1091F00001D004200DE00220694608720420039685
:10920000F8700D4800213838FFF720FE00280ED1F5
:10921000062020716079002803D0684673DF00289B
:1092200005D1E168002901D020798847002007B0E6
:10923000F0BD000028200020DC26002070B5054687
:1092400001461C220E48FEF797FF0E4C00262670A2
:109250002968002906D00822201DFEF78DFF201D59
:109260007ADF02E00748001D7BDF002807D1401E9F
:1092700060806670044A00210448FFF7A3FC70BDBB
:10928000C827002048200020E9B20100FCB40100FA
:10929000F8B5214C028800271E4DE689102A15D00A
:1092A0001E49112A21D0122A2DD0502A1CD1C28841
:1092B000801DB24218D1028B022A15D1C27E837E54
:1092C00010021843C007C00F0CD112E081886980DA
:1092D00001461048082216310C30FEF74DFF6F7022
:1092E000002E01D100F0C6FBF8BD0020C04368800D
:1092F0006F700868FFF702FD0028F5D0A16900290A
:10930000F2D08847F8BD811D024808220C30FEF7D4
:1093100033FFE7E748200020C8270020FCB4010005
:109320007CB5054608880C460930904201D90C20CE
:109330007CBD684671DF0028FAD121880820685476
:1093400020881B21401C80B220802954208800A93D
:10935000401C80B22080401906220131FEF70CFF2C
:1093600020886946801D80B220800978002900D0BD
:10937000012129542088401C208000207CBD000051
:1093800010B50446FFF784FF2146064800F040F878
:10939000204601F02DFB2046FFF71EFE204600F080
:1093A0008DF810BD1C26002030B5184B0D4604006A
:1093B0000FCB85B003936B4607C324D0002D22D07A
:1093C0000020C043A0822868A0610020A07521462B
:1093D000684663DF002814D1217868468174012132
:1093E0000182A21C04A90120A0DF002809D129467E
:1093F000204601F0B7FB002803D12946204601F0A2
:1094000097FE05B030BD0E20FBE7000000B501005F
:1094100000281ED000291CD00A88102A14D0112A36
:1094200014D0502A15D1CA88038A891D9A4202D1C4
:109430000B8B022B0ED083889A420AD18369002BB2
:1094400007D00A8B1A311847898801E00021C943E7
:1094500081827047CA7E8B7E11021943C907C90FEA
:1094600000D001218175704707B584B000280DD068
:10947000828A114B9A420BD0827D002A08D06A461C
:10948000128B142A06D9072007B000BD0E20FBE777
:109490000820F9E700220092019202920392828949
:1094A0006B461A80039106A9029101219970808A66
:1094B0006946A6DFE8E70000FFFF000010B51C4C7E
:1094C0000188606810290DD011290AD1401E606002
:1094D00007D1FFF7ECFA002803D02168002900D05B
:1094E000884710BD00281ED100210122084600F047
:1094F0007BF8002801D0072811D107220221012082
:1095000000F072F8002801D0072808D104220221B7
:10951000002000F069F8002805D0072803D0216852
:10952000002900D088476068401C606010BD0000C2
:109530002020002010B5032000F084F9002801D07D
:10954000062800D1002010BDF8B5074600242348A6
:1095500002E0641C042C1AD2A2008258BA42F8D14C
:10956000042C14D21D481E4E0C38002929D0012984
:109570000ED002290BD16000201880194578002DEB
:1095800005D018480169002901D028468847F8BD50
:1095900061006118755C8E19717800290CD0114931
:1095A0000A224968806851430E4A521CFFF768FB43
:1095B000002801D10B4847700A48B1781430015592
:1095C000DDE78068FFF79AFB0648610061181430F8
:1095D0008919005D8D78A842D1D0F8BDCCB40100C6
:1095E000782600200820002070B50023042811D21E
:1095F000440004190D4D012A02D101290DD0002289
:1096000046008019094E801900290CD0012906D086
:10961000022906D00723184670BD0D30C2B22A5564
:10962000F9E74270F7E78270F5E70000782600203E
:1096300010B5054A0146127A0020D20702D008462A
:1096400000F004F810BD000008200020FEB57A4D9F
:109650000722EB6892059A4302936B6800939C0083
:1096600006461B1900200121019349050746734C4A
:109670003300FFF70FF8180D1515374755677C882D
:109680007F8891DE9E9E9E9E9EC8CED1D8DEDE143F
:109690000F21029A49059143A160E7602F70FEBD3A
:1096A000A260E76060680F2252055040800209D531
:1096B000A160E760022E02D1E120C0000AE07D2017
:1096C000400107E0E160A760022E01D1C82001E05F
:1096D000FF2091302E706421FEF738FD0099414340
:1096E00000223FE0A260E76060680F225205504010
:1096F000800204D5A160E76019204001EAE7E1603B
:10970000A760E3E7A260E76060680F22520550405F
:10971000800202D5A160E760D1E7E160A760D7E7EA
:10972000A260E76060680F2252055040800202D5B7
:10973000A160E76001E0E160A7602E700098410041
:1097400000220FE0A260E76060680F2252055040DF
:10975000800202D5A160E76001E0E160A7602E70A1
:109760000099002236480068FFF78AFAFEBDA26021
:10977000E7601BE061680120800502468A43A26021
:109780000140E16010E06068012189050A468243DA
:10979000A2600840E060E3E76068012189050A46AD
:1097A0008243A2600840E0600199C9E7E160A760D8
:1097B0002DE023484068FFF7A1FA11218A1B01D050
:1097C000002807D00F22E96852051140A160E76028
:1097D000EF60FEBD0121C905E960012A0CD91046E0
:1097E000C82148436421FEF7B1FC69680022414367
:1097F00013484068FFF744FA0F22E9685205114008
:10980000E160A760FEBD0F214905A160E7602E70F1
:10981000FEBD07229205AAE70D214905A160E76078
:1098200001218905C2E70321C905A160E76089100C
:10983000BCE70F214905B9E70820002000050050CA
:10984000C0B40100F0B500210B4C0C4D03273F04C0
:109850008A00A25892005619326801238B400340B7
:1098600000D00323BA431B0413433360491C04296B
:10987000EED30020F0BD0000CCB401000007005082
:109880000022D243830004490428CA5002D3081896
:10989000203002777047000004280020F0B5002532
:1098A000ED43002A02D00023042601E00423082609
:1098B0000B4C04E09F00E7597F1C04D05B1CB342B3
:1098C000F8D32846F0BD26185DB2203635709E00CC
:1098D000A151002AF5D1E11820310877F1E7000005
:1098E000042800200249091820200856704700006B
:1098F0000428002010B5002400F050F9002809D1F8
:10990000242C01D1FEF723FEC82000F071FC641C5A
:10991000E4B2F1E710BD10B5002400F03FF90028D3
:1099200009D0282C01D1FEF712FEC82000F060FCFF
:10993000641CE4B2F1E710BDF8B52348C168002902
:109940003ED00E6821494C680769C078E11B0D02C2
:109950002D0AED1C002814D101201D4A000450607E
:109960001B4A403A50601B49400008601A49086091
:109970001A49012008602F20FEF7BCFB1249012084
:10998000C870B54200D23546E81900020F4B000AF4
:10999000403318600D4A5168001B091B0902090A6F
:1099A0000002000AC91C814209D9506818602F20A2
:1099B000FEF7A0FB01200749400480390860F8BD8C
:1099C00001F098F8F8BD0000882000200015014043
:1099D0004013014080E200E000E100E0001001409F
:1099E000F8B50646108814468446801D0D469842F8
:1099F00001D90C20F8BD32880720062AFAD319278E
:109A0000FF01184BBA4201D99A42F3D17188062955
:109A1000F0D3B94201D99942ECD19A4203D099428C
:109A200001D08A42E6D805216046295420881221B7
:109A3000401C80B2208029542088401C80B22080A5
:109A40004119308801F04AFC2188401880B22080FA
:109A50004119708801F042FC2188401820800020C4
:109A6000F8BD0000FFFF000010B500221146FFF70F
:109A700071F810BDF8B5164800F046F9144D0026EF
:109A80000C3D144C002807D0616900291CD001202E
:109A90006A461070684616E02878002805D061698B
:109AA000002911D0684606700DE0687800280DD0B6
:109AB000A168094800220068FFF7E2F8002803D0F7
:109AC000A169002900D088472E70F8BD6168F0E7D1
:109AD00054200020C8270020FCB40100FEB5174C1C
:109AE0000646A0680090032568460F464570144A54
:109AF0006946112000F00AFC002803D0002211461C
:109B0000FFF728F830460F4E0F4A3060E0680190AA
:109B10006846457101A9122000F0F8FB002803D027
:109B200000221146FFF716F801211120776000F09E
:109B30009DFB0121122000F099FBFEBD60B50100E4
:109B40007D9C0100C0200020719C01001CB500F02C
:109B500039FC002803D000221146FEF7FBFF0E4C13
:109B600001A920680190062000F05EFC002803D0C7
:109B700000221146FEF7EEFF606800900020694663
:109B800048700246052000F0C1FB002803D00022E7
:109B90001146FEF7DFFF1CBD60B5010010B50520C2
:109BA00000F006FC0121484010BD10B5002803D08C
:109BB000062000F085FC10BD062000F02DFC10BD35
:109BC00010B5094900220846083800F081FC044617
:109BD000014606A0FEF74EFD200003D000221146EC
:109BE000FEF7B8FF10BD000078B5010053504920C2
:109BF000696E69743A2025640D0A000010B50E499B
:109C000000234A788C78A24212D0521CD2B24A70F9
:109C1000022A00D14B704A78074B920018339A58A9
:109C20000260086910180002000A0861012010BDD6
:109C30000360002010BD0000882000208268838817
:109C40001A4003689A5C0A708168491C81607047F9
:109C5000C26883881A4003689954C168491CC1606E
:109C6000704710B50446C0B2FFF7DCF8204610BDBF
:109C70000148406800470000C020002001480068FB
:109C800000470000C0200020F8B51E4C20780028B6
:109C900037D02069002807D00026E068002805D0CA
:109CA0000025002E04D013E00126F6E70125F8E791
:109CB000684651DF052806D0002806D0002211464C
:109CC000FEF748FF04E0012602E02169009888477A
:109CD000002D12D1608869460880A06861DF0528E0
:109CE00006D0002806D000221146FEF733FF04E01C
:109CF000012502E0E168A0688847002ED8D0002D39
:109D0000CFD0F8BDAC2000204188054802889142A0
:109D100004D34088814201D8012070470020704759
:109D20004C2000201048018CC9B2012917D1818C28
:109D3000090714D1018D09060A0F03D1828D12067D
:109D4000120F0ED0090F012903D1828D1206120FB6
:109D500007D0032903D1808D0006000F01D0002019
:109D60007047012070470000C00F00F030B5158823
:109D7000EC1C9C4201D90C2030BD02244C551388A8
:109D80001C255B1C9BB21380CD5413885B1C9BB2BB
:109D90001380012807D0022807D0032807D0042801
:109DA00007D0072030BD002004E0012002E0CC54A1
:109DB00001E00320C8541088401C1080002030BDF2
:109DC000F8B52C49C8680A690C780F798968864605
:109DD000944600913EE00099E20055182A7836E05A
:109DE000182353436968521CC918AB78D2B2934206
:109DF00000D100220B78022B02D0032B27D123E0C5
:109E00004E680346014603E0B14204D00B46C969DF
:109E100000291CD0F8E7002919D08B4208D1C0696D
:109E2000002805D1144F0126BE600026B446012744
:109E30000E68C969D961002909D00B689B190B60AC
:109E400005E00174C06900E000210028F9D16978BB
:109E50009142C5D12146641EE4B20029BBD1054917
:109E600062460A61C8600F71704501D00120F8BDDB
:109E70000020F8BD8820002000100140F8B50446FD
:109E800031480026C168009107784EE02E48F9005D
:109E900080680D1843E0002C02D02046E4691FE0E2
:109EA0002878182141436A68401CC0B251182870B4
:109EB000AA78904200D12E700A784868012A30D1E1
:109EC000027C002A2DD18A684260CA6882600A69D1
:109ED000C260496981611C490979002900D0466046
:109EE000194943680A699C46991A0902174B090ADD
:109EF000994202D28268891807E06146511A090224
:109F00008268090A8A4202D9511A016000E006609B
:109F10004660012186600174C66101F069F8002C79
:109F2000B9D1287869788842BAD138467F1EFFB205
:109F30000028ABD10448C1680098814201D00120BB
:109F4000F8BD0020F8BD000088200020FFFF7F0042
:109F50008CB055A107C90023049203910290554A81
:109F600005211846FEF744FE002803D000221146C2
:109F7000FEF7F0FD504A09AB07CA07C3FF210131C4
:109F80004E480590401806910891079003234C4ACB
:109F900005A909A8FEF7F6FE002803D00022114605
:109FA000FEF7D8FD4549002348225C39082000F01F
:109FB000B9FE002803D000221146FEF7CBFD002495
:109FC000009468460194047060DF002803D00022EA
:109FD0001146FEF7BFFD3B4800F09AFE002803D073
:109FE00000221146FEF7B6FD1120694608760B22C5
:109FF00035A106A87CDF002803D000221146FEF719
:10A00000A9FD009406206946019408804880FF203D
:10A010008C809130C88068467ADF002803D0002207
:10A020001146FEF797FD2B48009069462A48FFF736
:10A03000BBF9002803D000221146FEF78BFDFEF786
:10A0400055FD1C2105A8FEF7B0F80520C0030690B9
:10A050000F20000407900594032108A801706846AA
:10A06000448408A804711D480A901D480B9005A857
:10A07000FFF7E4F8002803D000221146FEF76AFD3E
:10A08000154800F0ADFE02A916A0FEF7F3FA032072
:10A09000FEF7E4FF00E048DF0028FCD00022114674
:10A0A000FEF758FDF7E7000053746172742E2E2EF0
:10A0B0000D0A000054240020B4B4010054220020F2
:10A0C000D1B10100819301004E6F726469635F55E5
:10A0D00041525400BFA901001C26002061AA0100C2
:10A0E000699A01002573000070B5144682880E46F7
:10A0F00005462088111D4118921C994201D8FE2A5C
:10A1000001D90C2070BD521C32542088FF21401C04
:10A1100080B2208031542088401C80B22080811978
:10A12000288801F0DBF82188401880B22080AA88B6
:10A13000002A09D0A968002908D08019FEF71CF868
:10A140002088A98840182080002070BD072070BD9D
:10A15000F8B50F46017814460546012902D1687802
:10A16000002806D02088821C9A422DD8012902D0CE
:10A1700006E00720F8BD69784118891C994223D868
:10A18000181A801E86B2684606802188B81C0818F6
:10A1900069467DDF0028EDD12878022805D169467F
:10A1A0000988B14201D809210AE00821012805D116
:10A1B0006878B04202D86A46108001E0684606809E
:10A1C00068460088FE2801D90C20F8BD2288401C72
:10A1D000B8542088401C80B22080395420886946B9
:10A1E000401C20800988401820800020F8BD000015
:10A1F00031B5054C04E0401E00902046FDF76AFF93
:10A2000000980028F7D138BDE70300008207D30E7D
:10A21000FF229A408907090E10B5994000280BDAF1
:10A2200003071B0F083B9C080C4BA400E318DC69D8
:10A2300094430C43DC6107E08408094BA400E41854
:10A24000236893430B432360C106C90E0120884055
:10A25000044908600449086010BD000000ED00E0FA
:10A2600000E400E080E200E000E100E0F3B581B04E
:10A270000F46019800F012FC012400281E4E0198A0
:10A2800017D0FFF72FFB80192030007F80090328AB
:10A2900002D0012806D007E01848006901998C40D7
:10A2A000204201D1022100E00321019800F058FB77
:10A2B000FEBD00F0FFFB0028FAD00198FFF712FB6B
:10A2C00005468100C81D0E4AF93089180A6980B216
:10A2D00022430A610B49401800210160002FE7D09A
:10A2E0000198FFF7FFFA800030580028E0D00648B8
:10A2F000AC404460FEBD0000042800200005005072
:10A30000006500400060004000630040FEB5044668
:10A3100023480E460019202141560027C81713462E
:10A32000401C01D0082738E0F27819462046FFF794
:10A33000B5FA0546401C2FD0B078002807D0194840
:10A34000A1000918086802229043086007E0002174
:10A350007378204600910A46019100F0ADFAF0783A
:10A36000002810D01048AA001018317802690F4B4D
:10A370001A400261E206D20C8907890B0A4301697F
:10A380000A43026109E00648327840192030017F13
:10A3900092011143017700E004273846FEBD00001A
:10A3A000042800200007005000650040FFE0FCFF8B
:10A3B00003490969C140C807C00F00D00120704798
:10A3C0000005005070B5124D2879002801D00820F2
:10A3D00070BD0F4900204039421E0B182033401C2D
:10A3E000C0B21A702028F8D300242046FFF748FA9C
:10A3F000641CE4B2082CF8D303210620FFF706FF03
:10A4000001200449C007486001202871002070BD68
:10A410004428002000630040012181400148C160C0
:10A420007047000000050050FEB5044620480D4668
:10A430000019002620308157491C01D0082633E03E
:10A44000A97800291DD0012200212046FFF726FA15
:10A45000411C14D0830017482A78181869780369BA
:10A46000154F3B4003610369E706FF0C9207920B0F
:10A47000C907C90A3B430A431343036104E00426A6
:10A4800012E00121C94301706A780120A0400B4904
:10A49000012A0BD0C860002100910B4601220191D6
:10A4A0002046114600F008FA3046FEBD8860F2E70B
:10A4B0000428002000650040FFE0ECFF000500508C
:10A4C0000121814001488160704700000005005073
:10A4D000FEB507460C4640791821424B4143CE1841
:10A4E0003179002901D00820FEBD002C02D13E495F
:10A4F000000144183260207B01250128207804D80F
:10A50000294681403948C16001E000F039FA2178DC
:10A51000374A01208900891808606578FF2D06D028
:10A520003249A840C860284600F00FFA01E0002533
:10A53000ED43A078FF2808D0002300931A4619465F
:10A540000193029000F0DCF902E00020C043029089
:10A55000E078FF2804D000F013FAE07800F0F5F975
:10A560007879182148431F49E27840188271396888
:10A570000520000223780818029A8360C5600261F2
:10A58000A2684262627B237B002A00D00122012B59
:10A5900004D0022B04D0032B06D103E0022302E0F7
:10A5A000042300E006231A4342657A7918235A43AC
:10A5B0000C4B6579D218D5713268002A04D0032378
:10A5C00004221B02C9184A60012505603068002872
:10A5D00004D0042021793856FFF718FE002070714E
:10A5E0003571FEBD3C29002050B50100000500502A
:10A5F00000070050F8B59C464379182463432A4C61
:10A60000069F1C196379002B01D01120F8BD134659
:10A610003B4346D0A5790126FF2D03D03346AB40FE
:10A62000224DEB600568E16022726046206167722E
:10A630000020A0722368002B05D066710326042336
:10A640003602AE19B360FF2609360020A851002A51
:10A6500001D0087800E0E07905231B02EB18D861EF
:10A66000012A01D9487802E0012F01D9E079D861A7
:10A670002068002805D003210420090269184860D9
:10A680000FE00027A8590028FCD0AF5121462846EA
:10A6900000F010FD0028F5D1A079FF2801D000F0CE
:10A6A0006FF90020F8BD00003C2900200005005093
:10A6B000F3B50446244881B0807D002801D00820ED
:10A6C000FEBD002C00D1214C206800F034F9207828
:10A6D000012739461E4E8140B1600021606800F0BC
:10A6E00021F91C4DA0696862607D217D0843E86600
:10A6F00003CCE8606961207B083C01280ED1002171
:10A70000A06800F00FF9E06800F015F9207B3946E9
:10A710008140B160E168A068A96028610A4E029892
:10A72000706021693160002806D00C4A217F0A48F8
:10A7300050600220FFF76AFD042028600020F074BA
:10A74000B074B7757075FEBD4C28002030B501009F
:10A75000000500500025004080000200002300405A
:10A76000F8B5294DEA7C002A01D01120F8BDE97422
:10A77000E86000202875687D002801D100F052FAB9
:10A780006868224C002805D081202149800048605B
:10A790000020F8BDFF212531204600F003F90546D1
:10A7A000FF210931204600F0FDF80746FF21453121
:10A7B000204600F0F7F80646394631432943E9D0F0
:10A7C0002846304306D100F0B7F90F48C17C007D20
:10A7D0008142DFD8FF21453100206050FF21253123
:10A7E00060500949002DC87401D00320F8BD002E27
:10A7F00001D00F20F8BD497D0120002901D0206043
:10A80000C6E76060C4E700004C280020002000403C
:10A810000023004010B5044C607D002803D100F0F7
:10A8200001FA0120607510BD4C280020F8B5204CBD
:10A830000026A27C002A01D01120F8BDA174A060DE
:10A84000002020821B4DFF271D37E8510120A86002
:10A8500000F058FC6168002911D024E0FF2701377F
:10A860002946144800F09EF8002802D1208AB842F8
:10A87000F6D1208AB84203D000F044FC00E03D4607
:10A88000A07C218A8842E9D8218AC81FF9380CD0D7
:10A89000084F2946384600F085F80028F9D00120F5
:10A8A000F8600020A0743046F8BD0F26F9E70000DC
:10A8B0004C2800200020004030B552000A43990087
:10A8C000039C0A432102049D0A4329040A430249C6
:10A8D00080004018026030BD0007005030B55200C3
:10A8E0000A439900039C0A432102049D0A43290458
:10A8F0000A43024980004018026030BD0007005042
:10A9000030B552000A439900039C0A432102049D7A
:10A910000A4329040A43024980004018026030BDFE
:10A92000000700501CB500220B4600921146019210
:10A93000FFF7D4FF1CBD1CB5002100910B4601227E
:10A9400001911146FFF7CAFF1CBD1CB50021009103
:10A950000B46012201911146FFF7D2FF1CBD0000FA
:10A96000820006481018026803231B049A43026001
:10A97000026809040A4302607047000000070050A3
:10A9800001218140014881607047000000050050AE
:10A99000034940180068012800D0002070470000DB
:10A9A000006000404058002800D00120704703227A
:10A9B000120280184068084000D00120704710B58E
:10A9C0000846D1B200F074FA10BD10B500280BD0C3
:10A9D000032808D10220FEF72BFE002803D0002216
:10A9E0001146FEF7B7F810BD00F071F910BD000078
:10A9F00070B50188194C0546102912D011291BD0B9
:10AA000020464088132924D0522909D100231A4610
:10AA10001946A9DF002803D000221146FEF79AF854
:10AA200070BD0720FEF704FE002803D00022114667
:10AA3000FEF790F8A8880AE00020FEF7F9FD00284C
:10AA400003D000221146FEF785F80020C043608045
:10AA500070BD00231A4685217FDFDBE70020002040
:10AA600010B50078002809D105483B21408876DFE1
:10AA7000002803D000221146FEF76CF810BD00003C
:10AA8000002000200021425C002A01D001207047F4
:10AA9000491C0629F7D30020704700000449081814
:10AAA00020214156042901DB012070470020704716
:10AAB000042800200449081820214156042901D205
:10AAC00001207047002070470428002007490979B9
:10AAD000490701D408207047002804D00449497868
:10AAE0000160002070470E207047000064200020A5
:10AAF0006428002070B501240B49600408600B49EC
:10AB000040108860094940398860094D6C602F20E9
:10AB1000FDF7F0FAAC60074D00242F202C61FDF703
:10AB2000E9FAEC7070BD000080E100E040130140E4
:10AB30000010014088200020FF2107480931002231
:10AB40004250064881690648037DC268D154017DA0
:10AB5000491C01757047000000200040002500409E
:10AB60004C28002070B500240546601C90B00007FA
:10AB7000000F08A9103008940870601C0007000F2F
:10AB8000103048708878F9263040801C88701C216D
:10AB900001A8FDF70AFB69460879102108436946B8
:10ABA0000871029408A804940594079406902878E4
:10ABB00008A98871032069468884112000940870D0
:10ABC00048708878F7213040801C0840EF21084009
:10ABD000012630436946887014210AA8FDF7E5FA7A
:10ABE00009A80A9068460B9069460E8614204C8688
:10ABF00088862B4668880C330AAA01A9A2DF10B008
:10AC000070BD00001FB5012269460A700872044831
:10AC1000C16801910021C17406C8684690471FBDF4
:10AC20004C280020FF220548253200218150FF22B8
:10AC3000093281500121016070470000002000406E
:10AC4000FFB50746806A81B0144600283DD0002534
:10AC500038462030009033E00C20B96A68430E1863
:10AC6000B088801CFE2802D90C2005B0F0BD2288D7
:10AC70000299401C885420881622401C80B22080F3
:10AC800002990A542088401C80B220800299411801
:10AC9000308800F023FB2188401880B22080B288E1
:10ACA000002A0AD0B16800290FD0029BC018FDF716
:10ACB00063FA2088B188401820806D1C0098EDB29E
:10ACC000007BA842C8D80020CFE70720CDE710B509
:10ACD0000020FEF7ADFC002803D000221146FDF74E
:10ACE00039FFFEF727FC002803D000221146FDF7AC
:10ACF00031FF3CDF002803D000221146FDF72AFF78
:10AD000010BD10B508461146C046C04610BD000033
:10AD1000002803D00249C860002070470E20704709
:10AD2000AC20002070B5002901D08C0701D007208D
:10AD300070BD064C0125A16062800549636010DF8B
:10AD40000028F5D1257016202EDF70BDAC20002024
:10AD500003AD010038B5DBB200930B460146D2B219
:10AD60000648FFF747FC041E03D000221146FDF7FA
:10AD7000F1FE0120FFF73CFA204638BD70B5010016
:10AD800010B505A0FDF776FC0849052208460E38E7
:10AD90000068FEF769FB10BD4D53475F545950459D
:10ADA0005F4241434B574152440D0A00E6200020C8
:10ADB00010B505A0FDF75EFC0849052208460938D4
:10ADC0000068FEF751FB10BD4D53475F5459504585
:10ADD0005F464F52574152440D0A0000E1200020C7
:10ADE00010B50446FDF7ACFBFDF780FB07490848AA
:10ADF000FEF774FE0748052104601430017000213D
:10AE0000418001710449C18010BD000081AD010085
:10AE1000B1AD0100D8200020A83A000070B5142977
:10AE200017D84178027809021143104A914210D193
:10AE30008078002601250E4C00280BD001280FD069
:10AE4000022806D10BA0FDF715FC0220207003207C
:10AE5000207170BD0DA0FDF70DFC2670257170BD31
:10AE60000FA0FDF707FC2570267170BD3E3E000067
:10AE7000EC2000204D53475F46494E4953485F54EC
:10AE8000585F494D4147450D0A0000004D53475F4B
:10AE9000545950455F54585F494D4147450D0A008C
:10AEA0004D53475F545950455F41434B0D0A0000D5
:10AEB000F8B50D460646FFF7B1FF264C207900286D
:10AEC0000AD0012809D002280CD000250527032824
:10AED0001DD0257127706580F8BD02202071FDF717
:10AEE0003EFBF8BD1B480021083003E0725C4318AC
:10AEF0001A71491CA942F9D3E188491BE180C57048
:10AF000014482D1DE9B20830FDF7D8FAF8BD1148F4
:10AF1000143806681048E080FDF792FA27700D4952
:10AF200065802571052210393046FEF79DFA012013
:10AF3000FFF75EF9FEF7DEFC0120FFF759F9FEF797
:10AF4000EAFC0120FFF754F9FDF7A0FAFDF7FFFA3C
:10AF5000F8BD0000EC200020A83A0000FEB51F4C10
:10AF600000252769E06802906846FEF747FE0190D9
:10AF7000FEF726FF06460198002822D000230098FD
:10AF8000E16817E00E680A46864202D9301A086066
:10AF900012E0801BF31800261660D668D169B4460B
:10AFA000002E07D0FE183602360A566066469660B6
:10AFB000D56115460029E5D12846E160FEF75EFF20
:10AFC00006E02846FEF75AFF002801D1002E02D0E5
:10AFD0000298FEF7B1FC00202071FEBD8820002001
:10AFE00001200249000508607047000000E200E00F
:10AFF00010B50E4BD968002906D002680C68A24231
:10B0000004D8A21A0A60C161D86010BD0B4604E0E2
:10B010000B46C969121B002904D00C689442F7D36F
:10B02000A41A0C600260C161D86110BD88200020A4
:10B03000F8B51E4DEC68002C36D01D48002740683E
:10B040002969401A0602360A2068B0421AD8361A10
:10B05000C7192246107CE469002811D00020107422
:10B060006B69002B09D0916950699847002807D077
:10B0700000221146FDF76EFD02E051699069884794
:10B08000002CE1D16978A878814206D1401CC0B279
:10B09000A870022801D10020A87004490006800D84
:10B0A00018310F50FFF79CFFF8BD000088200020EA
:10B0B0000015014038B505221202831898696A46C6
:10B0C0001070887A4A7A904203D26A4612780C69E4
:10B0D0002254887A401CC2B28A720C7A501C844274
:10B0E00002D9C968085C03E04D7A854202D9C87963
:10B0F000D86103E0A24201D3AA4201D2012038BDA7
:10B10000002038BDFF2107481D310022425006486B
:10B11000028A8168895C028A521C02820348C161EA
:10B1200070470000002000404C280020002500400F
:10B1300070B58EB005461C216846FDF736F86946A5
:10B1400008780C2108436946087000240194039490
:10B15000049405940694287808A98870022069460A
:10B160000884601C0007000F103007940877112036
:10B170004877887FF9210840F721801C0840EF219B
:10B1800008400126304369468877142109A8FDF755
:10B190000CF808A8099007A80A9069468E85142023
:10B1A000CC85088668882B1D09AAA2DF0EB070BD69
:10B1B0001FB500216A46117010720448826801921E
:10B1C000817406C8684690471FBD00004C280020C7
:10B1D00070B50178002909D0012901D0022904D1D4
:10B1E000002240681146FDF7B5FC70BD104C0F4DB4
:10B1F00020782818FDF7ACFD2078401CC2B2A818B2
:10B2000022702038C07F0A2801D0142AEDD30749C4
:10B210000848FEF729F9082805D0002803D00022A5
:10B220001146FDF797FC0020207070BD40220020E1
:10B23000002000201C2600207CB50178254D012926
:10B240000AD002292FD000292CD129462248FDF707
:10B250008FFC00282ED031E0406801781E4810385D
:10B26000FDF7A3FC1C4C103C002805D001216A46C8
:10B2700011700190684608E0A068E168081A01288A
:10B2800005D1002069460870684669688847A0684B
:10B29000E168081AA188884204D80E480121801C60
:10B2A000FFF75EFA7CBD02216A461170C06801900A
:10B2B00068460CE001210748FFF7B8FA06488168A4
:10B2C000C0688842EED10320694608706846696804
:10B2D00088477CBD5C200020F42700200870000A0D
:10B2E000487002207047000038B51549154A488853
:10B2F00090420FD04A78144C521CD2B24A70237B31
:10B30000934208D3091D75DF002803D0A1690029E5
:10B3100000D0884738BD00254D70217C002907D01A
:10B320003B2176DF002803D0A169002900D088479F
:10B3300061690029EED068460570884738BD000075
:10B3400048200020FFFF0000C8270020124948685D
:10B35000C005C00D19D0103840B2002807DA020726
:10B36000120F083A920892005118C96904E0810846
:10B370000A4A8900891809688007C00EC14008067A
:10B38000800F012803D0032803D00220704700203B
:10B39000704701207047000000ED00E000E400E08D
:10B3A00042788378521CD2B2934200D100220378B3
:10B3B000934201D1002070470A70416840781822FA
:10B3C000504308187047FFB583B016460C9D0D9C7E
:10B3D0001F46022200950194039800F00CF8002803
:10B3E00007D13B461022314600950194039800F0A6
:10B3F00002F807B0F0BDFFB583B0074600200C9CF3
:10B400008646268805463AE07868A90042181188E1
:10B41000684681805188C1800022694601A865DFA5
:10B42000002839D1684601780598814226D17046B6
:10B43000002801D0002200E002222088891842184A
:10B440000D998A4227D8714600290AD1401C80B242
:10B450002080069A049911542088401C20800120E5
:10B460008646218806980A18694601A865DF0028E3
:10B4700012D1694620880978401820806D1C3888D0
:10B48000A842C1DC704600280AD02088801B401EDC
:10B4900080B2FF2802D90C2007B0F0BD069988556C
:10B4A0000020F9E70179002902D1007B002800D0B3
:10B4B000012070470B09080A0000000000E0D701D6
:10B4C0003826002058260020842600201100000085
:10B4D000120000001300000014000000110003001F
:10B4E0004995010012000300499501001300030073
:10B4F000499501001400030049950100A827002088
:10B500009ECADC240EE5A9E093F3A3B50000406ECB
:10B51000090000000B0000000A0000000800000005
:10B52000000000000000000000509D00030000002B
:10B53000090000000B0000000A00000008000000E5
:10B54000000000000000000000509D00030000000B
:10B55000020304FF03FF00000000004000000000A1
:10B5600000010000030000000200000002000000D3
:10B5700000300040030000000401030203CC00007F
:10B580000000002003000000A8B5010000200020FA
:10B59000F8010000E4810100D4B50100F821002089
:10B5A00028100000BE86010031062AFFFF010002BC
:10B5B0000398FFFF47300101002401938601343EC8
:10B5C0003E01343E3E03C43E3E0405FE20010080A1
:04B5D0001424F4004B
:04000005000180C1B5
:00000001FF
