:020000040000FA
:10000000480B0020150100002F0100003101000005
:1000100000000000000000000000000000000000E0
:10002000000000000000000000000000330100009C
:100030000000000000000000350100003701000052
:100040003901000039010000390100002D030000D2
:100050003901000000000000C1010000390100006A
:1000600039010000390100003901000039010000A8
:100070003901000039010000390100003901000098
:10008000390100000D0300003901000039010000B2
:10009000610300003901000039010000390100004E
:1000A00039010000390100000000000000000000DC
:1000B0000000000000000000000000000000000040
:1000C0000348854600F06AF800480047250F000005
:1000D000480B0020401E00BF00BF00BF00BF00BF94
:1000E00000BF00BF00BF00BF00BF00BF00BFF1D115
:1000F00070470000401E00BF00BF00BF00BF00BF30
:1001000000BF00BF00BF00BF00BF00BF00BFF1D1F4
:10011000704700000321094802680A43026008484A
:1001200002680A4302600748804707480047FEE725
:10013000FEE7FEE7FEE7FEE7FEE7000024050040DD
:100140005405004069030000C100000030B50B46B3
:10015000014600202022012409E00D46D5409D42A1
:1001600005D31D469540491B254695404019154627
:10017000521E002DF1DC30BDD2B201E00270401CF5
:10018000491EFBD270470022F6E710B513460A4617
:1001900004461946FFF7F0FF204610BD064C012526
:1001A000064E05E0E36807CC2B430C3C984710341F
:1001B000B442F7D3FFF788FFDC170000FC170000FC
:1001C000F8B50024FF25013501262746009428466E
:1001D00001F05EF9002808D034484068304204D06D
:1001E000334800212818344301602D1D76007F1C00
:1001F000ADB2042FEBD3FF207D3001F049F9002888
:1002000007D02C4800210160400704432A480069B8
:1002100000902A4F200712D00126002526420AD03E
:100220002748AA00111808690969C004C00E89038B
:10023000BA58890F904776006D1C042DEED3002C20
:1002400030DA00241D4E0021301940304156491C3F
:1002500025D00778BD06AD0E284600F053FC80007F
:100260003658002E1BD0BF090121A940154AA8000D
:1002700080180068009A8003800F114202D0022883
:1002800002D00CE003280AD1032F05D102280AD09E
:100290000221284601F0E4F839462846B047641C9C
:1002A000042CCFD3F8BD0321F3E700000063004026
:1002B000006000407C61004000050050000200200A
:1002C00000650040000700508307FF22DB0E9A40C4
:1002D0008907090E994000280BDA0007000F08383B
:1002E000830808489B001818C36993430B43C361F4
:1002F0007047830804489B001B1818689043084304
:100300001860704700ED00E000E400E010B5064919
:100310000020086048608860C86003494039086070
:10032000486001F079F910BD4011014070B5FF211E
:1003300009480931094C00254550214601F0AEF924
:10034000002808D1A079FF2801D001F099F8657143
:1003500021680020884770BD00300040480200201E
:1003600010B501F0EFF810BD10B500F0E3FC002867
:1003700005D00E490C484860C8130D4988610D48E6
:10038000018CC9B201290ED1818C09070BD1018DD5
:100390000906090F042906D1808D0006000F02D13D
:1003A00005490120886010BDDFFF07C0000500403F
:1003B000006C0040C00F00F00006004000B591B096
:1003C00040216846FFF7DFFE00F023F804231A46B9
:1003D0006946064801F0A0F840231A4604496846D9
:1003E00001F09AF800F00DF811B000BD4C000020AB
:1003F0008002002010B500F011FC00F043FC012049
:1004000010BD10B5142000F095FD012000F02EFC69
:1004100010BD10B5002000F029FC282000F08AFD56
:1004200010BD30B47446641E2578641CAB4200D203
:100430001D46635D5B00E31830BC184702E008C846
:10044000121F08C1002AFAD170477047002001E04E
:1004500001C1121F002AFBD1704700000448426806
:100460000121C9050B46934383600A40C26070476F
:100470000005005070B50024064D06E06968E000F4
:10048000085C012100F094FD641C28788442F5D3B7
:10049000002070BD18000020F8B515460C46064631
:1004A000052A01D20720F8BD00F058FE002803D12C
:1004B00000F02AFE0028F6D1104900204E600C7092
:1004C000C8608D6008610E4D0DE0E000696880191C
:1004D000009181786A46517000780A4A694600F0B6
:1004E000B7FD0028DFD12046641EE4B20028ECD11D
:1004F000054A0021024800F00DF8F8BD1800002060
:10050000B4170000E50C0000BD0B00000C2000F04B
:1005100067F9FEE7094B9B68002B07D0002A07D03C
:10052000002805D00068037C002B03D0082070470A
:100530000720704741744261002070472C00002062
:10054000FFB59007002581B014460E46002832D131
:100550001B4F002C31D000F0BDFF049878610320C0
:10056000387033461821224600204B43BC601834B3
:10057000C10089180D704D708E704C601C19401CA4
:100580000328F5DBFD607D7001240E48BD70240555
:10059000046003211420FFF797FE0B4804600B4C06
:1005A0000198A06003211120FFF78EFE606838617A
:1005B000002005B0F0BD0720FBE7BD60FBE70000B1
:1005C0002C00002080E200E000E100E00015014086
:1005D000FEB50D461B4917468968044600292AD0F6
:1005E000002C28D0052D01D20720FEBD606900280F
:1005F00021D0607C012820D0002601F077F8C000CF
:100600001049019089684018694601F099F800285E
:1006100015D0012101700C49446049680830E2C0DE
:10062000084901988968411868460078487000F0C8
:10063000CBFF0020FEBD0820FEBD2E46DDE70420D6
:10064000FEBD00002C00002000150140F8B5134D40
:100650000446A96800291CD0002C1AD06069002823
:1006600017D00026267401F041F8C700A868694633
:10067000381801F065F800280DD00221017044609F
:10068000A868391868460078487000F09DFF304629
:10069000F8BD0820F8BD0420F8BD00002C000020A3
:1006A000F8B507460024234802E0641C042C1AD243
:1006B000A2008258BA42F8D1042C14D21D481E4E12
:1006C0000C38002929D001290ED002290BD1600055
:1006D000201880194578002D05D018480169002997
:1006E00001D028468847F8BD61006118755C8E19F5
:1006F000717800290CD011490A2249688068514359
:100700000E4A521CFFF764FF002801D10B484770C6
:100710000A48B17814300155DDE78068FFF796FF8D
:1007200006486100611814308919005D8D78A8426F
:10073000D1D0F8BD74170000D401002000000020C3
:1007400010B5114901208861104900224A608207D2
:10075000906048680028FCD000230D4A0321184609
:10076000FFF7EEFE002803D00C2000F039F8FEE77A
:1007700000220849012000F041F8002803D00C2095
:1007800000F02EF8FEE710BD00050040000100401B
:100790005C000020CD0C000070B50023042811D2AD
:1007A000440004190D4D012A02D101290DD0002267
:1007B00046008019094E801900290CD0012906D065
:1007C000022906D00723184670BD0D30C2B22A5543
:1007D000F9E74270F7E78270F5E70000D4010020E6
:1007E00010B5054A0146127A0020D20702D0084609
:1007F00000F054F810BD00000000002070B50E4657
:10080000204905464E608D6000200A61A9071ED56B
:100810000024012211462046FFF7BEFF641C042C71
:1008200002D20028F5D012E0002810D1720804216D
:100830001548FFF731FE002809D1FFF71BFE0028FD
:1008400005D11148114A00211438FFF763FEE9076A
:1008500006D00F220E4952058A600023CB608A61C0
:1008600000280DD108480B4A00211C38FFF752FE22
:10087000002805D10448084A01211838FFF74AFE2C
:1008800070BD00000000002084170000950A0000E1
:10089000000500507D0D00005D040000FEB57A4D9E
:1008A0000722EB6892059A4302936B6800939C00C1
:1008B00006461B1900200121019349050746734C88
:1008C0003300FFF7AEFD180D1515374755677C88C7
:1008D0007F8891DE9E9E9E9E9EC8CED1D8DEDE147D
:1008E0000F21029A49059143A160E7602F70FEBD78
:1008F000A260E76060680F2252055040800209D56F
:10090000A160E760022E02D1E120C0000AE07D2054
:10091000400107E0E160A760022E01D1C82001E09C
:10092000FF2091302E706421FFF710FC00994143A5
:1009300000223FE0A260E76060680F22520550404D
:10094000800204D5A160E76019204001EAE7E16078
:10095000A760E3E7A260E76060680F22520550409D
:10096000800202D5A160E760D1E7E160A760D7E728
:10097000A260E76060680F2252055040800202D5F5
:10098000A160E76001E0E160A7602E70009841007F
:1009900000220FE0A260E76060680F22520550401D
:1009A000800202D5A160E76001E0E160A7602E70DF
:1009B0000099002236480068FFF70AFEFEBDA260DB
:1009C000E7601BE061680120800502468A43A2605F
:1009D0000140E16010E06068012189050A46824318
:1009E000A2600840E060E3E76068012189050A46EB
:1009F0008243A2600840E0600199C9E7E160A76016
:100A00002DE023484068FFF721FE11218A1B01D009
:100A1000002807D00F22E96852051140A160E76065
:100A2000EF60FEBD0121C905E960012A0CD910461D
:100A3000C82148436421FFF789FB696800224143CC
:100A400013484068FFF7C4FD0F22E96852051140C2
:100A5000E160A760FEBD0F214905A160E7602E702F
:100A6000FEBD07229205AAE70D214905A160E760B6
:100A700001218905C2E70321C905A160E76089104A
:100A8000BCE70F214905B9E7000000200005005030
:100A90006817000010B500780221FFF701FE10BDB5
:100AA0000022D243830004490428CA5002D3081804
:100AB000203002777047000000020020F0B50025CA
:100AC000ED43002A02D00023042601E00423082677
:100AD0000B4C04E09F00E7597F1C04D05B1CB34221
:100AE000F8D32846F0BD26185DB2203635709E003A
:100AF000A151002AF5D1E11820310877F1E7000073
:100B00000002002002490918202008567047000002
:100B100000020020F8B52348C16800293ED00E68C5
:100B200021494C680769C078E11B0D022D0AED1CB4
:100B3000002814D101201D4A000450601B4A403A8D
:100B400050601B49400008601A4908601A4901209A
:100B500008602F20FFF7CEFA12490120C870B54275
:100B600000D23546E81900020F4B000A40331860E6
:100B70000D4A5168001B091B0902090A0002000AFC
:100B8000C91C814209D9506818602F20FFF7B2FABA
:100B900001200749400480390860F8BD00F09AFC44
:100BA000F8BD00002C00002000150140401301405A
:100BB00080E200E000E100E000100140F8B500260E
:100BC0000124154D23E06968F00047183878214664
:100BD0002A698140114218D08A432A6100F08AFABA
:100BE0003A782146EB689140194003469340994278
:100BF0000BD17978012901D0012100E000217B6827
:100C00004140002B01D010469847761CF6B2287858
:100C10008642D8D3F8BD0000180000201CB500F0B3
:100C200073FA002803D000221146FFF76FFC0E4C28
:100C300001A920680190062000F0A0FA002803D046
:100C400000221146FFF762FC6068009000206946B0
:100C500048700246052000F0FBF9002803D000226E
:100C60001146FFF753FC1CBDBC17000010B500284F
:100C700003D0062000F0CEFA10BD062000F076FA70
:100C800010BD0000064910B508460022083800F0E3
:100C9000C9FA002803D000221146FFF737FC10BD27
:100CA000CC17000010B50E4900234A788C78A24278
:100CB00012D0521CD2B24A70022A00D14B704A782C
:100CC000074B920018339A58026008691018000206
:100CD000000A0861012010BD0360002010BD000063
:100CE0002C000020F8B50746104E0125BD403068A5
:100CF000FFF7ACFC00280DD10D4C2069284207D12C
:100D0000384600F0F7F90028E06804D0284303E0F3
:100D1000A8432061F8BDA843E06020690022284371
:100D20002061A1683068FFF753FCF8BDB4170000DC
:100D3000180000201048018CC9B2012917D1818CFC
:100D4000090714D1018D09060A0F03D1828D1206FD
:100D5000120F0ED0090F012903D1828D1206120F36
:100D600007D0032903D1808D0006000F01D0002099
:100D70007047012070470000C00F00F010B5044814
:100D8000017AC90702D00078FFF788FD10BD000086
:100D900000000020F8B52C49C8680A690C780F7962
:100DA00089688646944600913EE00099E200551815
:100DB0002A7836E0182353436968521CC918AB7867
:100DC000D2B2934200D100220B78022B02D0032B27
:100DD00027D123E04E680346014603E0B14204D028
:100DE0000B46C96900291CD0F8E7002919D08B42AD
:100DF00008D1C069002805D1144F0126BE60002625
:100E0000B44601270E68C969D961002909D00B6869
:100E10009B190B6005E00174C06900E00021002807
:100E2000F9D169789142C5D12146641EE4B2002906
:100E3000BBD1054962460A61C8600F71704501D097
:100E40000120F8BD0020F8BD2C000020001001405A
:100E5000F8B5044631480026C168009107784EE095
:100E60002E48F90080680D1843E0002C02D020467F
:100E7000E4691FE02878182141436A68401CC0B229
:100E800051182870AA78904200D12E700A784868CC
:100E9000012A30D1027C002A2DD18A684260CA68BA
:100EA00082600A69C260496981611C490979002927
:100EB00000D04660194943680A699C46991A09029C
:100EC000174B090A994202D28268891807E06146E5
:100ED000511A09028268090A8A4202D9511A01602C
:100EE00000E006604660012186600174C66100F082
:100EF00073FB002CB9D1287869788842BAD138467A
:100F00007F1EFFB20028ABD10448C168009881421F
:100F100001D00120F8BD0020F8BD00002C00002009
:100F2000FFFF7F00FFF70CFCFFF764FAFFF746FABC
:100F3000FEE7000031B5054C04E0401E009020465D
:100F4000FFF7C8F800980028F7D138BDE703000084
:100F50008207D30EFF229A408907090E10B59940E7
:100F600000280BDA03071B0F083B9C080C4BA4005E
:100F7000E318DC6994430C43DC6107E08408094B07
:100F8000A400E418236893430B432360C106C90EF1
:100F900001208840044908600449086010BD000031
:100FA00000ED00E000E400E080E200E000E100E0AD
:100FB000F3B581B00F46019800F074FA01240028BF
:100FC0001E4E019817D0FFF79DFD80192030007F3D
:100FD0008009032802D0012806D007E018480069DC
:100FE00001998C40204201D1022100E003210198A7
:100FF00000F036FAFEBD00F061FA0028FAD0019840
:10100000FFF780FD05468100C81D0E4AF93089189A
:101010000A6980B222430A610B494018002101602D
:10102000002FE7D00198FFF76DFD800030580028B1
:10103000E0D00648AC404460FEBD00000002002045
:101040000005005000650040006000400063004063
:10105000FEB5044623480E460019202141560027BC
:10106000C8171346401C01D0082738E0F27819460B
:101070002046FFF723FD0546401C2FD0B0780028FE
:1010800007D01948A1000918086802229043086097
:1010900007E000217378204600910A46019100F094
:1010A000B1F9F078002810D01048AA001018317853
:1010B00002690F4B1A400261E206D20C8907890BC4
:1010C0000A4301690A43026109E00648327840197F
:1010D0002030017F92011143017700E00427384658
:1010E000FEBD000000020020000700500065004027
:1010F000FFE0FCFF03490969C140C807C00F00D0E9
:10110000012070470005005070B5124D2879002865
:1011100001D0082070BD0F4900204039421E0B1835
:101120002033401CC0B21A702028F8D30024204677
:10113000FFF7B6FC641CE4B2082CF8D303210620A8
:10114000FFF706FF01200449C0074860012028710D
:10115000002070BD4002002000630040024800797A
:10116000002800D00120704740020020012181406A
:101170000148C1607047000000050050FEB50446FC
:1011800020480D460019002620308157491C01D007
:10119000082633E0A97800291DD00122002120462D
:1011A000FFF78CFC411C14D0830017482A781818CC
:1011B00069780369154F3B4003610369E706FF0C3B
:1011C0009207920BC907C90A3B430A4313430361C1
:1011D00004E0042612E00121C94301706A7801206D
:1011E000A0400B49012A0BD0C860002100910B469A
:1011F000012201912046114600F004F93046FEBD5F
:101200008860F2E70002002000650040FFE0ECFF8C
:1012100000050050012181400148816070470000B5
:1012200000050050FEB507460C4640791821424B98
:101230004143CE183179002901D00820FEBD002C91
:1012400002D13E49000144183260207B012501286B
:10125000207804D8294681403948C16001E000F077
:101260000FF92178374A01208900891808606578CC
:10127000FF2D06D03249A840C860284600F0E6F8A5
:1012800001E00025ED43A078FF2808D0002300935B
:101290001A4619460193029000F0C6F802E00020B9
:1012A000C0430290E078FF2804D000F0E9F8E0782D
:1012B00000F0CCF87879182148431F49E2784018AB
:1012C000827139680520000223780818029A836029
:1012D000C5600261A2684262627B237B002A00D063
:1012E0000122012B04D0022B04D0032B06D103E0F2
:1012F000022302E0042300E006231A4342657A79C0
:1013000018235A430C4B6579D218D5713268002ADC
:1013100004D0032304221B02C9184A60012505607A
:101320003068002804D0042021793856FFF710FED9
:10133000002070713571FEBD48020020A417000026
:101340000005005000070050F8B59C46437918246A
:1013500063432A4C069F1C196379002B01D011208E
:10136000F8BD13463B4346D0A5790126FF2D03D097
:101370003346AB40224DEB600568E1602272604667
:10138000206167720020A0722368002B05D066716F
:10139000032604233602AE19B360FF260936002067
:1013A000A851002A01D0087800E0E07905231B024B
:1013B000EB18D861012A01D9487802E0012F01D940
:1013C000E079D8612068002805D0032104200902B3
:1013D000691848600FE00027A8590028FCD0AF51D9
:1013E0002146284600F05AF90028F5D1A079FF28B7
:1013F00001D000F045F80020F8BD000048020020B0
:101400000005005030B552000A439900039C0A437E
:101410002102049D0A4329040A430249800040181E
:10142000026030BD0007005030B552000A439900F9
:10143000039C0A432102049D0A4329040A430249EA
:1014400080004018026030BD000700501CB500212C
:1014500000910B46012201911146FFF7E5FF1CBDEB
:10146000820006481018026803231B049A43026096
:10147000026809040A430260704700000007005038
:101480000121814001488160704700000005005043
:10149000034940180068012800D000207047000070
:1014A000006000400449081820214156042901DB4E
:1014B00001207047002070470002002004490818EE
:1014C00020214156042901D2012070470020704795
:1014D0000002002070B501240B49600408600B492C
:1014E00040108860094940398860094D6C602F20A0
:1014F000FEF700FEAC60074D00242F202C61FEF7A4
:10150000F9FDEC7070BD000080E100E04013014087
:10151000001001402C00002038B5DBB200930B46D0
:101520000146D2B20648FFF70FFF041E03D0002287
:101530001146FEF7EBFF0120FFF7FCFC204638BD0B
:10154000C4170000FEB51F4C00252769E068029013
:101550006846FFF7A7FB0190FFF71CFC06460198C1
:10156000002822D000230098E16817E00E680A46A0
:10157000864202D9301A086012E0801BF318002658
:101580001660D668D169B446002E07D0FE18360220
:10159000360A566066469660D56115460029E5D143
:1015A0002846E160FFF754FC06E02846FFF750FCB0
:1015B000002801D1002E02D00298FFF7ABFA0020DC
:1015C0002071FEBD2C0000200120024900050860AA
:1015D0007047000000E200E010B50E4BD96800290A
:1015E00006D002680C68A24204D8A21A0A60C1613F
:1015F000D86010BD0B4604E00B46C969121B0029D8
:1016000004D00C689442F7D3A41A0C600260C16144
:10161000D86110BD2C000020F8B51E4DEC68002CE0
:1016200036D01D48002740682969401A0602360A4C
:101630002068B0421AD8361AC7192246107CE469CD
:10164000002811D0002010746B69002B09D091691B
:1016500050699847002807D000221146FEF756FF30
:1016600002E0516990698847002CE1D16978A87837
:10167000814206D1401CC0B2A870022801D10020CE
:10168000A87004490006800D18310F50FFF79CFF29
:10169000F8BD00002C0000200015014038B50522DF
:1016A0001202831898696A461070887A4A7A9042C2
:1016B00003D26A4612780C692254887A401CC2B25E
:1016C0008A720C7A501C844202D9C968085C03E013
:1016D0004D7A854202D9C879D86103E0A24201D38C
:1016E000AA4201D2012038BD002038BD1249486805
:1016F000C005C00D19D0103840B2002807DA020723
:10170000120F083A920892005118C96904E0810842
:101710000A4A8900891809688007C00EC140080676
:10172000800F012803D0032803D002207047002037
:10173000704701207047000000ED00E000E400E089
:1017400042788378521CD2B2934200D100220378AF
:10175000934201D1002070470A70416840781822F6
:10176000504308187047000094010020B401002085
:10177000E001002011000000120000001300000032
:101780001400000011000300A10600001200030075
:10179000A106000013000300A106000014000300CE
:1017A000A1060000020304FF03FF00000000004048
:1017B00000000000600200200300000000010000A3
:1017C0000300000000300040030001000401030298
:1017D00003CC00000000002003000000FC17000004
:1017E000000000205C0000003C04000058180000CD
:1017F0005C000020EC0A00004C0400000000000027
:1018000000000000000000000000000000000000D8
:1018100000000000000000000000000000000000C8
:1018200000000000000000000000000000000000B8
:1018300000000000000000000000000000000000A8
:101840000000000000000000300101002401000041
:08185000000000000024F40078
:04000005000000C136
:00000001FF
